{
  "contractName": "KyodoDAO",
  "abi": [
    {
      "constant": false,
      "inputs": [],
      "name": "renounceOwnership",
      "outputs": [],
      "payable": false,
      "stateMutability": "nonpayable",
      "type": "function"
    },
    {
      "constant": true,
      "inputs": [],
      "name": "owner",
      "outputs": [
        {
          "name": "",
          "type": "address"
        }
      ],
      "payable": false,
      "stateMutability": "view",
      "type": "function"
    },
    {
      "constant": true,
      "inputs": [
        {
          "name": "",
          "type": "address"
        }
      ],
      "name": "whitelist",
      "outputs": [
        {
          "name": "alias",
          "type": "string"
        },
        {
          "name": "whitelisted",
          "type": "bool"
        }
      ],
      "payable": false,
      "stateMutability": "view",
      "type": "function"
    },
    {
      "constant": true,
      "inputs": [],
      "name": "Token",
      "outputs": [
        {
          "name": "",
          "type": "address"
        }
      ],
      "payable": false,
      "stateMutability": "view",
      "type": "function"
    },
    {
      "constant": false,
      "inputs": [
        {
          "name": "_newOwner",
          "type": "address"
        }
      ],
      "name": "transferOwnership",
      "outputs": [],
      "payable": false,
      "stateMutability": "nonpayable",
      "type": "function"
    },
    {
      "inputs": [
        {
          "name": "_token",
          "type": "address"
        }
      ],
      "payable": false,
      "stateMutability": "nonpayable",
      "type": "constructor"
    },
    {
      "anonymous": false,
      "inputs": [
        {
          "indexed": true,
          "name": "previousOwner",
          "type": "address"
        }
      ],
      "name": "OwnershipRenounced",
      "type": "event"
    },
    {
      "anonymous": false,
      "inputs": [
        {
          "indexed": true,
          "name": "previousOwner",
          "type": "address"
        },
        {
          "indexed": true,
          "name": "newOwner",
          "type": "address"
        }
      ],
      "name": "OwnershipTransferred",
      "type": "event"
    },
    {
      "constant": false,
      "inputs": [],
      "name": "getWhitelistedAddresses",
      "outputs": [
        {
          "name": "",
          "type": "address[]"
        }
      ],
      "payable": false,
      "stateMutability": "nonpayable",
      "type": "function"
    },
    {
      "constant": false,
      "inputs": [
        {
          "name": "_value",
          "type": "string"
        }
      ],
      "name": "nickNameNotExist",
      "outputs": [
        {
          "name": "",
          "type": "bool"
        }
      ],
      "payable": false,
      "stateMutability": "nonpayable",
      "type": "function"
    },
    {
      "constant": false,
      "inputs": [
        {
          "name": "_value",
          "type": "string"
        }
      ],
      "name": "setAlias",
      "outputs": [],
      "payable": false,
      "stateMutability": "nonpayable",
      "type": "function"
    },
    {
      "constant": true,
      "inputs": [
        {
          "name": "_addr",
          "type": "address"
        }
      ],
      "name": "getAlias",
      "outputs": [
        {
          "name": "",
          "type": "string"
        }
      ],
      "payable": false,
      "stateMutability": "view",
      "type": "function"
    },
    {
      "constant": false,
      "inputs": [
        {
          "name": "_beneficiary",
          "type": "address"
        }
      ],
      "name": "addToWhitelist",
      "outputs": [],
      "payable": false,
      "stateMutability": "nonpayable",
      "type": "function"
    },
    {
      "constant": false,
      "inputs": [
        {
          "name": "_beneficiaries",
          "type": "address[]"
        }
      ],
      "name": "addManyToWhitelist",
      "outputs": [],
      "payable": false,
      "stateMutability": "nonpayable",
      "type": "function"
    },
    {
      "constant": false,
      "inputs": [
        {
          "name": "_beneficiary",
          "type": "address"
        }
      ],
      "name": "removeFromWhitelist",
      "outputs": [],
      "payable": false,
      "stateMutability": "nonpayable",
      "type": "function"
    }
  ],
  "bytecode": "0x608060405234801561001057600080fd5b5060405160208061143e83398101806040528101908080519060200190929190505050336000806101000a81548173ffffffffffffffffffffffffffffffffffffffff021916908373ffffffffffffffffffffffffffffffffffffffff16021790555080600460006101000a81548173ffffffffffffffffffffffffffffffffffffffff021916908373ffffffffffffffffffffffffffffffffffffffff1602179055505061137a806100c46000396000f3006080604052600436106100ba576000357c0100000000000000000000000000000000000000000000000000000000900463ffffffff1680636a293d04146100bf5780636d028027146100fa5780636dfd99a714610166578063715018a6146101e75780638ab1d681146101fe5780638c10671c146102415780638da5cb5b1461027c57806399900d11146102d35780639b19251a1461038f578063c241267614610456578063e43252d7146104ad578063f2fde38b146104f0575b600080fd5b3480156100cb57600080fd5b506100f8600480360381019080803590602001908201803590602001919091929391929390505050610533565b005b34801561010657600080fd5b5061010f610772565b6040518080602001828103825283818151815260200191508051906020019060200280838360005b83811015610152578082015181840152602081019050610137565b505050509050019250505060405180910390f35b34801561017257600080fd5b506101cd600480360381019080803590602001908201803590602001908080601f0160208091040260200160405190810160405280939291908181526020018383808284378201915050505050509192919290505050610800565b604051808215151515815260200191505060405180910390f35b3480156101f357600080fd5b506101fc61090f565b005b34801561020a57600080fd5b5061023f600480360381019080803573ffffffffffffffffffffffffffffffffffffffff169060200190929190505050610a11565b005b34801561024d57600080fd5b5061027a600480360381019080803590602001908201803590602001919091929391929390505050610aca565b005b34801561028857600080fd5b50610291610c5e565b604051808273ffffffffffffffffffffffffffffffffffffffff1673ffffffffffffffffffffffffffffffffffffffff16815260200191505060405180910390f35b3480156102df57600080fd5b50610314600480360381019080803573ffffffffffffffffffffffffffffffffffffffff169060200190929190505050610c83565b6040518080602001828103825283818151815260200191508051906020019080838360005b83811015610354578082015181840152602081019050610339565b50505050905090810190601f1680156103815780820380516001836020036101000a031916815260200191505b509250505060405180910390f35b34801561039b57600080fd5b506103d0600480360381019080803573ffffffffffffffffffffffffffffffffffffffff169060200190929190505050610d67565b604051808060200183151515158152602001828103825284818151815260200191508051906020019080838360005b8381101561041a5780820151818401526020810190506103ff565b50505050905090810190601f1680156104475780820380516001836020036101000a031916815260200191505b50935050505060405180910390f35b34801561046257600080fd5b5061046b610e30565b604051808273ffffffffffffffffffffffffffffffffffffffff1673ffffffffffffffffffffffffffffffffffffffff16815260200191505060405180910390f35b3480156104b957600080fd5b506104ee600480360381019080803573ffffffffffffffffffffffffffffffffffffffff169060200190929190505050610e56565b005b3480156104fc57600080fd5b50610531600480360381019080803573ffffffffffffffffffffffffffffffffffffffff169060200190929190505050610ffb565b005b33600260008273ffffffffffffffffffffffffffffffffffffffff1673ffffffffffffffffffffffffffffffffffffffff16815260200190815260200160002060010160009054906101000a900460ff16151561058f57600080fd5b6105ca83838080601f016020809104026020016040519081016040528093929190818152602001838380828437820191505050505050610800565b15156105d557600080fd5b8282600260003373ffffffffffffffffffffffffffffffffffffffff1673ffffffffffffffffffffffffffffffffffffffff168152602001908152602001600020600001919061062692919061128f565b50600183839091806001815401808255809150509060018203906000526020600020016000909192939091929390919290919250919061066792919061128f565b5050600460009054906101000a900473ffffffffffffffffffffffffffffffffffffffff1673ffffffffffffffffffffffffffffffffffffffff166340c10f1933620186a06040518363ffffffff167c0100000000000000000000000000000000000000000000000000000000028152600401808373ffffffffffffffffffffffffffffffffffffffff1673ffffffffffffffffffffffffffffffffffffffff16815260200182815260200192505050602060405180830381600087803b15801561073157600080fd5b505af1158015610745573d6000803e3d6000fd5b505050506040513d602081101561075b57600080fd5b810190808051906020019092919050505050505050565b606060038054806020026020016040519081016040528092919081815260200182805480156107f657602002820191906000526020600020905b8160009054906101000a900473ffffffffffffffffffffffffffffffffffffffff1673ffffffffffffffffffffffffffffffffffffffff16815260200190600101908083116107ac575b5050505050905090565b600080600090505b600180549050811015610904576108e961082184611062565b6108db60018481548110151561083357fe5b906000526020600020018054600181600116156101000203166002900480601f0160208091040260200160405190810160405280929190818152602001828054600181600116156101000203166002900480156108d15780601f106108a6576101008083540402835291602001916108d1565b820191906000526020600020905b8154815290600101906020018083116108b457829003601f168201915b5050505050611062565b61109090919063ffffffff16565b156108f75760009150610909565b8080600101915050610808565b600191505b50919050565b6000809054906101000a900473ffffffffffffffffffffffffffffffffffffffff1673ffffffffffffffffffffffffffffffffffffffff163373ffffffffffffffffffffffffffffffffffffffff1614151561096a57600080fd5b6000809054906101000a900473ffffffffffffffffffffffffffffffffffffffff1673ffffffffffffffffffffffffffffffffffffffff167ff8df31144d9c2f0f6b59d69b8b98abd5459d07f2742c4df920b25aae33c6482060405160405180910390a260008060006101000a81548173ffffffffffffffffffffffffffffffffffffffff021916908373ffffffffffffffffffffffffffffffffffffffff160217905550565b6000809054906101000a900473ffffffffffffffffffffffffffffffffffffffff1673ffffffffffffffffffffffffffffffffffffffff163373ffffffffffffffffffffffffffffffffffffffff16141515610a6c57600080fd5b6000600260008373ffffffffffffffffffffffffffffffffffffffff1673ffffffffffffffffffffffffffffffffffffffff16815260200190815260200160002060010160006101000a81548160ff02191690831515021790555050565b60008060009054906101000a900473ffffffffffffffffffffffffffffffffffffffff1673ffffffffffffffffffffffffffffffffffffffff163373ffffffffffffffffffffffffffffffffffffffff16141515610b2757600080fd5b600090505b82829050811015610c59576001600260008585858181101515610b4b57fe5b9050602002013573ffffffffffffffffffffffffffffffffffffffff1673ffffffffffffffffffffffffffffffffffffffff1673ffffffffffffffffffffffffffffffffffffffff16815260200190815260200160002060010160006101000a81548160ff02191690831515021790555060038383838181101515610bcc57fe5b9050602002013573ffffffffffffffffffffffffffffffffffffffff1690806001815401808255809150509060018203906000526020600020016000909192909190916101000a81548173ffffffffffffffffffffffffffffffffffffffff021916908373ffffffffffffffffffffffffffffffffffffffff160217905550508080600101915050610b2c565b505050565b6000809054906101000a900473ffffffffffffffffffffffffffffffffffffffff1681565b6060600260008373ffffffffffffffffffffffffffffffffffffffff1673ffffffffffffffffffffffffffffffffffffffff1681526020019081526020016000206000018054600181600116156101000203166002900480601f016020809104026020016040519081016040528092919081815260200182805460018160011615610100020316600290048015610d5b5780601f10610d3057610100808354040283529160200191610d5b565b820191906000526020600020905b815481529060010190602001808311610d3e57829003601f168201915b50505050509050919050565b6002602052806000526040600020600091509050806000018054600181600116156101000203166002900480601f016020809104026020016040519081016040528092919081815260200182805460018160011615610100020316600290048015610e135780601f10610de857610100808354040283529160200191610e13565b820191906000526020600020905b815481529060010190602001808311610df657829003601f168201915b5050505050908060010160009054906101000a900460ff16905082565b600460009054906101000a900473ffffffffffffffffffffffffffffffffffffffff1681565b80600260008273ffffffffffffffffffffffffffffffffffffffff1673ffffffffffffffffffffffffffffffffffffffff16815260200190815260200160002060010160009054906101000a900460ff16151515610eb357600080fd5b8160008173ffffffffffffffffffffffffffffffffffffffff1614151515610eda57600080fd5b6000809054906101000a900473ffffffffffffffffffffffffffffffffffffffff1673ffffffffffffffffffffffffffffffffffffffff163373ffffffffffffffffffffffffffffffffffffffff16141515610f3557600080fd5b6001600260008573ffffffffffffffffffffffffffffffffffffffff1673ffffffffffffffffffffffffffffffffffffffff16815260200190815260200160002060010160006101000a81548160ff02191690831515021790555060038390806001815401808255809150509060018203906000526020600020016000909192909190916101000a81548173ffffffffffffffffffffffffffffffffffffffff021916908373ffffffffffffffffffffffffffffffffffffffff16021790555050505050565b6000809054906101000a900473ffffffffffffffffffffffffffffffffffffffff1673ffffffffffffffffffffffffffffffffffffffff163373ffffffffffffffffffffffffffffffffffffffff1614151561105657600080fd5b61105f816110bd565b50565b61106a61130f565b600060208301905060408051908101604052808451815260200182815250915050919050565b600082602001516110b384600001518560200151856000015186602001516111b7565b1415905092915050565b600073ffffffffffffffffffffffffffffffffffffffff168173ffffffffffffffffffffffffffffffffffffffff16141515156110f957600080fd5b8073ffffffffffffffffffffffffffffffffffffffff166000809054906101000a900473ffffffffffffffffffffffffffffffffffffffff1673ffffffffffffffffffffffffffffffffffffffff167f8be0079c531659141344cd1fd0a4f28419497f9722a3daafe3b4186f6b6457e060405160405180910390a3806000806101000a81548173ffffffffffffffffffffffffffffffffffffffff021916908373ffffffffffffffffffffffffffffffffffffffff16021790555050565b60008060008060008060008a8911151561127d5760208911151561123c5760018960200360080260020a03196001029450848851169350888b8b010395508486511692505b8360001916836000191614151561123257898611151561121e57899650611281565b8580600190039650508486511692506111fc565b8886019650611281565b8888209150888b038a0195505b898610151561127c578886209050806000191682600019161415611271578886019650611281565b600186039550611249565b5b8996505b505050505050949350505050565b828054600181600116156101000203166002900490600052602060002090601f016020900481019282601f106112d057803560ff19168380011785556112fe565b828001600101855582156112fe579182015b828111156112fd5782358255916020019190600101906112e2565b5b50905061130b9190611329565b5090565b604080519081016040528060008152602001600081525090565b61134b91905b8082111561134757600081600090555060010161132f565b5090565b905600a165627a7a72305820f7a0a06311ff484cef82a5dcc41a9891cbe99edc4b1c8a3bbf4b4f2cdea227b20029",
  "source": "pragma solidity ^0.4.24;\n\nimport \"openzeppelin-solidity/contracts/ownership/Ownable.sol\";\nimport \"openzeppelin-solidity/contracts/token/ERC20/MintableToken.sol\";\nimport \"./strings.sol\";\n\ncontract KyodoDAO is Ownable {\n  using strings for *;\n\n  // Defines Member type\n  struct Member {\n    string alias;\n    bool whitelisted;\n  }\n\n  string[] usedAliases;\n  mapping(address => Member) public whitelist;\n  address[] whitelistedAddresses;\n  MintableToken public Token;\n\n  constructor(address _token) public {\n    Token = MintableToken(_token);\n  }\n\n  // @dev Returns list of whitelistedAddresses.\n  // @return List of whitelisted addresses.\n  function getWhitelistedAddresses()\n    public\n    returns (address[])\n  {\n    return whitelistedAddresses;\n  }\n\n  function nickNameNotExist(string _value)\n    public\n    returns (bool)\n  {\n    for (uint i=0; i < usedAliases.length; i++) {\n      if (usedAliases[i].toSlice().contains(_value.toSlice())) return false;\n    }\n    return true;\n  }\n\n  function setAlias(\n    string _value\n  )\n    isWhitelisted(msg.sender)\n    external\n  {\n    require(nickNameNotExist(_value));\n    whitelist[msg.sender].alias = _value;\n    usedAliases.push(_value);\n    MintableToken(Token).mint(msg.sender, 100000);\n  }\n\n  function getAlias(address _addr) public view returns (string)\n  {\n    return whitelist[_addr].alias;\n  }\n\n    /**\n   * @dev Reverts if beneficiary is not whitelisted. Can be used when extending this contract.\n   */\n  modifier isWhitelisted(address _beneficiary) {\n    require(whitelist[_beneficiary].whitelisted);\n    _;\n  }\n\n    /**\n   * @dev Reverts if beneficiary is not whitelisted. Can be used when extending this contract.\n   */\n  modifier isNotWhitelisted(address _beneficiary) {\n    require(!whitelist[_beneficiary].whitelisted);\n    _;\n  }\n\n  modifier notNull(address _address) {\n    require(_address != 0);\n    _;\n  }\n\n  /**\n   * @dev Adds single address to whitelist.\n   * @param _beneficiary Address to be added to the whitelist\n   */\n  function addToWhitelist(address _beneficiary)\n    external \n    isNotWhitelisted(_beneficiary)\n    notNull(_beneficiary)\n    onlyOwner\n  {\n    whitelist[_beneficiary].whitelisted = true;\n    whitelistedAddresses.push(_beneficiary);\n  }\n\n  /**\n   * @dev Adds list of addresses to whitelist. Not overloaded due to limitations with truffle testing.\n   * @param _beneficiaries Addresses to be added to the whitelist\n   */\n  function addManyToWhitelist(address[] _beneficiaries) external onlyOwner {\n    for (uint256 i = 0; i < _beneficiaries.length; i++) {\n      whitelist[_beneficiaries[i]].whitelisted = true;\n      whitelistedAddresses.push(_beneficiaries[i]);\n    }\n  }\n\n  /**\n   * @dev Removes single address from whitelist.\n   * @param _beneficiary Address to be removed to the whitelist\n   */\n  function removeFromWhitelist(address _beneficiary) external onlyOwner {\n    whitelist[_beneficiary].whitelisted = false;\n  }\n\n}\n",
  "sourcePath": "/home/igor/Development/decent.fund/kyodo/contracts/KyodoDAO.sol",
  "compiler": {
    "name": "solc",
    "version": "0.4.24+commit.e67f0147.Emscripten.clang"
  },
  "schemaVersion": "2.0.1",
  "updatedAt": "2018-06-24T20:38:51.810Z"
}